:100000000C9494000C94BC000C94BC000C942B0633
:100010000C942B060C942B060C94BC000C94BC0086
:100020000C94BC000C94BC000C94BC000C94BC0060
:100030000C94BC000C94BC000C94BC000C94BC0050
:100040000C94E1050C94BC000C94AF050C9489054C
:100050000C94BC000C94BC000C94BC000C94BC0030
:100060000C94BC000C94BC00B303B703BE03AD03F7
:10007000BE03AF03BB03CB03BE03BE03BE03BE037D
:10008000BE03BE03BE03BE03C203BE03BE03BE0364
:10009000BE03BE037E0A810A860A890A8C0A8F0A79
:1000A000920A950A980A9B0ACF0ACF0ACF0ACF0A6A
:1000B000CF0ACF0ACF0A9E0AA10AA40AA70AAA0A4F
:1000C000AD0AB00AB40ABA0AC30A0000000024004C
:1000D00027002A00000000080002010000030407B6
:1000E00000000000000000000000000025002800C3
:1000F0002B00000000002300260029000404040453
:1001000004040404020202020202030303030303C1
:10011000010204081020408001020408102001029E
:1001200004081020A506DA0A11241FBECFEFD8E07C
:10013000DEBFCDBF11E0A0E0B1E0E8E4F6E102C02F
:1001400005900D92A835B107D9F722E0A8E5B1E0F6
:1001500001C01D92AA3FB207E1F710E0C3E9D0E069
:1001600004C02197FE010E94F80AC239D107C9F7DD
:100170000E94C8070C94170B0C94000096E0899F0E
:10018000D0011124A557BD4F90967C936E935F9735
:1001900091E091969C9391979091F702E091F802EB
:1001A000F091F902992339F0309751F0811108C08C
:1001B0008091A70204C0309719F05C968C91099445
:1001C0000895FC01538D448D252F30E0842F90E05D
:1001D000821B930B541710F0CF9608950197089542
:1001E000FC01918D828D981761F0828DDF01A80F3F
:1001F000B11D5D968C91928D9F5F9F73928F90E061
:1002000008958FEF9FEF0895FC01918D828D9817CF
:1002100031F0828DE80FF11D858D90E008958FEF0C
:100220009FEF0895FC01918D228D892F90E0805CD5
:100230009F4F821B91098F7399270895FC01848D2C
:10024000DF01A80FB11DA35ABF4F2C91848D90E000
:1002500001968F739927848FA689B7892C93A089DB
:10026000B1898C9180648C93938D848D981306C092
:100270000288F389E02D80818F7D80830895EF923D
:10028000FF920F931F93CF93DF93EC0181E0888F50
:100290009B8D8C8D981305C0E889F989808185FD37
:1002A00024C0F62E0B8D10E00F5F1F4F0F73112728
:1002B000E02E8C8DE8120CC00FB607FCFACFE8894F
:1002C000F989808185FFF5CFCE010E941E01F1CF13
:1002D0008B8DFE01E80FF11DE35AFF4FF0820B8F6B
:1002E000EA89FB898081806207C0EE89FF8960838B
:1002F000E889F98980818064808381E090E0DF91E2
:10030000CF911F910F91FF90EF900895CF93DF93BE
:10031000EC01888D8823C9F0EA89FB89808185FDFD
:1003200005C0A889B9898C9186FD0FC00FB607FC5E
:10033000F5CF808185FFF2CFA889B9898C9185FF9F
:10034000EDCFCE010E941E01E7CFDF91CF9108953E
:1003500085EA91E00E94120121E0892B09F420E056
:10036000822F089580E090E0892B29F00E94A80157
:1003700081110C9400000895CF92DF92EF92FF92CA
:100380000F931F93CF93DF936C017A018B01C0E031
:10039000D0E0CE15DF0589F0D8016D918D01D60131
:1003A000ED91FC910190F081E02DC6010995892B1A
:1003B00011F47E0102C02196ECCFC701DF91CF91ED
:1003C0001F910F91FF90EF90DF90CF9008958330B1
:1003D00081F028F4813099F08230A1F008958730BF
:1003E000A9F08830B9F08430D1F4809180008F7DFD
:1003F00003C0809180008F7780938000089584B53A
:100400008F7702C084B58F7D84BD08958091B00040
:100410008F7703C08091B0008F7D8093B0000895E6
:10042000CF93DF93282F30E0F901EC52FF4F8491F6
:10043000F901E05FFE4FD491F901E450FF4FC49100
:10044000CC2391F081110E94E701EC2FF0E0EE0F38
:10045000FF1FEE50FF4FA591B491EC91ED2381E089
:1004600090E021F480E002C080E090E0DF91CF9145
:100470000895862F0C9410021F93CF93DF93282F9B
:1004800030E0F901EC52FF4F8491F901E05FFE4F3B
:10049000D491F901E450FF4FC491CC23C9F0162F39
:1004A00081110E94E701EC2FF0E0EE0FFF1FE851F1
:1004B000FF4FA591B4918FB7F894111105C09C918D
:1004C000ED2FE095E92302C0EC91ED2BEC938FBF6B
:1004D000DF91CF911F910895862F642F0C943C02D9
:1004E000CF93DF9390E0FC01E05FFE4F2491FC018D
:1004F000E450FF4F8491882361F190E0880F991FA9
:10050000FC01E653FF4FC591D491FC01E851FF4F28
:10051000A591B491611109C09FB7F8948881209585
:1005200082238883EC912E230BC0623061F49FB745
:10053000F8943881822F809583238883EC912E2B29
:100540002C939FBF06C08FB7F894E8812E2B288389
:100550008FBFDF91CF910895862F642F0C94700286
:100560003FB7F89480919D0190919E01A0919F01C9
:10057000B091A00126B5A89B05C02F3F19F00196A8
:10058000A11DB11D3FBFBA2FA92F982F8827820F19
:10059000911DA11DB11DBC01CD0143E0660F771F68
:1005A000881F991F4A95D1F708958F929F92AF9215
:1005B000BF92CF92DF92EF92FF926B017C010E947B
:1005C000B0024B015C01C114D104E104F104F1F06B
:1005D0000E94B002DC01CB0188199909AA09BB0964
:1005E000883E9340A105B10570F321E0C21AD108FD
:1005F000E108F10888EE880E83E0981EA11CB11C6A
:10060000C114D104E104F10419F7DDCFFF90EF909C
:10061000DF90CF90BF90AF909F908F9008952FB7AD
:10062000F8946091990170919A0180919B01909149
:100630009C012FBF08950F931F93CF93DF93809159
:10064000460290914702DC01ED91FC910084F18516
:10065000E02D0995892B09F4B6C0C0916402809100
:10066000460290914702DC01ED91FC910284F385F2
:10067000E02DC1110DC00995809350028E37F9F617
:1006800010926A02809164028F5F80936402D7CFD8
:100690000995EC2FF0E0EA5BFD4F828790916402B0
:1006A0009230A9F09930C9F0913009F088C080915A
:1006B00051028F3F09F483C0109264029093660246
:1006C000109269021092680290936A02ABC0809106
:1006D0005202863009F473C004C0809159028F3EE3
:1006E00019F01092640263C0E1E5F2E040E050E0EE
:1006F0008191480F511DB2E0E735FB07C9F7209102
:10070000570230E0322F22275195419551098091AF
:100710005802280F311D109264024217530709F046
:1007200046C0E0915302E09367028091550290E049
:10073000982F882720915602820F911D909369026D
:10074000809368024E2F50E0FA01FA97E631F105E6
:10075000C8F4EC5CFF4F0C94F80A85E00DC081FFF3
:100760001CC084E009C081FF18C082E005C081FF81
:1007700014C083E001C086E08093660281E080932C
:100780006A020BC081E080936602109269021092A7
:10079000680280936A0210926B02D0916A02DD2394
:1007A00009F442C080915E028823E1F13DC081E0FE
:1007B00080936602109269021092680231C09F5FB6
:1007C000909364023CCF80916B028823E9F00E94F1
:1007D0000F03009148021091490220914A02309182
:1007E0004B02DC01CB01801B910BA20BB30B0091E0
:1007F0004C0210914D0220914E0230914F02801711
:100800009107A207B30718F4D0916A020DC01092A5
:10081000640210926602109269021092680281E0EE
:1008200080936A0210926B028D2FDF91CF911F91FE
:100830000F91089580935D0270935F026093600250
:10084000EBE5F2E080E090E02191820F911D22E043
:10085000E136F207C9F7919581959109909361026C
:100860008093620280915E02882339F080916B024E
:10087000882349F00E941B03F9CF6AE070E080E012
:1008800090E00E94D5028091460290914702DC01DF
:10089000ED91FC910280F381E02D4AE050E06AE5A1
:1008A00072E009950E940F03609348027093490219
:1008B00080934A0290934B0281E090915E029111E5
:1008C00001C080E080936B020895BC0183E00C942A
:1008D0001A040F931F93CF93DF93C82FD62F86E070
:1008E000C89FF0011124E557FD4F11A2878D90A1FB
:1008F00081309105F1F01CF4892B49F043C082301E
:100900009105A9F10397F1F560E070E034C066232A
:10091000C9F161E070E08C2F0E94BE000E940F03BD
:100920006093E3027093E4028093E5029093E60201
:1009300029C00E940F030091E3021091E40220916C
:10094000E5023091E602AB01BC01401B510B620B8A
:10095000730B8091F5029091F602A0E0B0E084174D
:100960009507A607B70718F462E070E004C0D1113C
:1009700009C063E070E08C2FDF91CF911F910F9140
:100980000C94BE00DF91CF911F910F91089520919B
:10099000A3013091A4012817390771F49091A101A6
:1009A0008091A201981741F0E091A101F0E0E85A8E
:1009B000FE4F808190E008958FEF9FEF0895089596
:1009C0001F93CF93DF93DC015C962D913C915D9753
:1009D0002115310539F481E090E013969C938E93B4
:1009E00012973DC05196ED91FC91529750969C9173
:1009F0005097892F80951FB75E964C915E9741FB6B
:100A0000772770F941FD6095F8944081772311F0C4
:100A1000492B01C048234083E9012197F1F748E0C1
:100A2000508160FF02C0592B01C058235083E90157
:100A30002197F1F76695415099F7772321F090813E
:100A40008923808303C08081982B90831FBF5C968D
:100A50008D919C915D970197F1F721E030E0C901FC
:100A6000DF91CF911F9108952091A3013091A401AE
:100A70002817390771F48091A2012091A10190E01B
:100A8000805C9F4F821B910960E470E00E94E40A41
:100A9000089580E090E008952091A3013091A40191
:100AA00028173907B9F49091A1018091A2019817F4
:100AB00089F0E091A101F0E0E85AFE4F8081209199
:100AC000A10130E02F5F3F4F2F7333272093A10107
:100AD00090E008958FEF9FEF0895E091A301F091CA
:100AE000A401E817F90769F4A389B4899C91858961
:100AF000809589238C931092A4011092A30181E028
:100B0000089580E00895089580E090E008950E949F
:100B1000120B1F920F920FB60F9211242F933F9337
:100B20004F935F936F937F938F939F93AF93BF93F5
:100B3000EF93FF9385EA91E00E941E01FF91EF91F0
:100B4000BF91AF919F918F917F916F915F914F91E5
:100B50003F912F910F900FBE0F901F9018951F92ED
:100B60000F920FB60F9211242F938F939F93EF93B1
:100B7000FF93E091B501F091B6018081E091BB0156
:100B8000F091BC0182FD12C090818091BE018F5F07
:100B90008F732091BF01821751F0E091BE01F0E008
:100BA000EB55FE4F958F8093BE0101C08081FF9170
:100BB000EF919F918F912F910F900FBE0F901F90EB
:100BC00018951F920F920FB60F9211242F933F93F7
:100BD0008F939F93AF93BF938091990190919A01C6
:100BE000A0919B01B0919C013091980126E0230FC8
:100BF0002D3720F40296A11DB11D05C029E8230F51
:100C00000396A11DB11D20939801809399019093A3
:100C10009A01A0939B01B0939C0180919D019091BA
:100C20009E01A0919F01B091A0010196A11DB11D4F
:100C300080939D0190939E01A0939F01B093A0018A
:100C4000BF91AF919F918F913F912F910F900FBEC8
:100C50000F901F9018951F920F920FB60F921124AC
:100C60002F933F934F935F936F937F938F939F93B4
:100C7000AF93BF93EF93FF93E091A301F091A40191
:100C8000309709F451C0968DA685B785858591FF6B
:100C900004C09C91892329F447C09C91892309F0C1
:100CA00043C0A389B4899C918589809589238C93BD
:100CB000868997890197F1F7608D718DA685B78533
:100CC000558538E020E0CB010197F1F7822F90E0C5
:100CD00095958795282F4C91452309F02068315030
:100CE00091F7868D81FD20958091A20190E001967B
:100CF0008F7399273091A101381749F0A091A20173
:100D0000B0E0A85ABE4F2C938093A20103C0868DF9
:100D10008160868F828D938D0197F1F7A389B489C5
:100D20009C918589892B8C93FF91EF91BF91AF9115
:100D30009F918F917F916F915F914F913F912F91F3
:100D40000F900FBE0F901F9018951092A80110924F
:100D5000A70188EE93E0A0E0B0E08093A901909312
:100D6000AA01A093AB01B093AC018DE291E0909306
:100D7000A6018093A50185EC90E09093B201809349
:100D8000B10184EC90E09093B4018093B30180ECC6
:100D900090E09093B6018093B50181EC90E0909340
:100DA000B8018093B70182EC90E09093BA018093F0
:100DB000B90186EC90E09093BC018093BB01109246
:100DC000BE011092BF011092C0011092C101109299
:100DD0008D0210929102109290021092920281E57F
:100DE00091E090938C0280938B0280E090E0FC0174
:100DF000E557FD4F148E10A2178E11A206968C3364
:100E00009105A9F786E091E09093EE028093ED02C0
:100E100082E091E09093F0028093EF0285E080936E
:100E2000F10284E08093F2028BE091E09093EC0277
:100E30008093EB028AE090E09093F4028093F302B7
:100E400084EF91E09093F6028093F5021092F902FC
:100E50001092F8021092E7021092E8021092E90252
:100E60001092EA021092F70210926F0210926E0234
:100E700088EE93E0A0E0B0E080937002909371025E
:100E8000A0937202B09373028FE391E090936D028E
:100E900080936C021092830210928202109285025B
:100EA0001092840210928702109286021092890298
:100EB0001092880260918A026E7F6D7F60938A0231
:100EC0006695617081E0682783E00E943C0261E0E2
:100ED00083E00E947002E3E1F1E0E491E0937C02A0
:100EE000EFEFF0E0E491F0E0EE0FFF1FE851FF4F6D
:100EF0008591949190937E0280937D0260E082E0E0
:100F00000E94700280918A0281FD04C061E082E04B
:100F10000E943C0282E080937802E2E1F1E0E491F9
:100F2000E0937902EEEFF0E0E491F0E0EE0FFF1FC6
:100F3000EE50FF4F2591349130937B0220937A023B
:100F400044EF51E060E070E040934C0250934D025A
:100F500060934E0270934F029AE0EFE1F1E0AAE550
:100F6000B2E001900D929A95E1F71092640280939D
:100F7000650210926A0210926B020E940F03609346
:100F80004202709343028093440290934502089575
:100F9000789484B5826084BD84B5816084BD85B554
:100FA000826085BD85B5816085BD80916E00816060
:100FB00080936E0010928100809181008260809306
:100FC0008100809181008160809381008091800008
:100FD0008160809380008091B10084608093B10033
:100FE0008091B00081608093B00080917A0084602D
:100FF00080937A0080917A00826080937A00809159
:101000007A008E7F80937A0080917A008068809346
:101010007A001092C10010928702109286021092FC
:1010200085021092840210928302109282028DEC4B
:1010300090E0909389028093880290917802963193
:1010400008F057C025E530E03093830220938202F8
:101050002BEC30E0309385022093840220E930E0CD
:10106000309387022093860220916800983050F0D8
:1010700031E09E3008F430E081E001C0880F3A95FD
:10108000EAF701C084E0822B80936800983038F042
:101090009E3040F0963148F020E030E008C02DE668
:1010A00030E005C02BE630E002C02CE630E03093A3
:1010B000800220937F02983030F481E001C0880FD5
:1010C0009A95EAF70EC0292F30E09E3018F4285088
:1010D000310902C02E50310981E001C0880F2A95E4
:1010E000EAF78093810280918802909189020197AA
:1010F000F1F78091860290918702892B21F18091EE
:10110000A3019091A40122E08C369207E1F00097B0
:1011100011F00E946D0580918A028E7F80938A0271
:101120001092A2011092A1018CE692E09093A4018A
:101130008093A301E0917F02F091800290818091E1
:101140008102892B8083E091B501F091B60182E0A4
:101150008083E091B101F091B2011082E091B3017E
:10116000F091B40187E680831092BD01E091B9014E
:10117000F091BA0186E08083E091B701F091B80167
:10118000808180618083E091B701F091B801808116
:1011900088608083E091B701F091B8018081806818
:1011A0008083E091B701F091B80180818F7D8083C9
:1011B000C1E0C0935E028CE692E090934702809378
:1011C000460280914C0290914D02A0914E02B09146
:1011D0004F028854944FAF4FBF4F80934C0290936F
:1011E0004D02A0934E02B0934F0260E070E08CE09D
:1011F0000E941A04C0936B020E941B038823E1F330
:1012000080914C0290914D02A0914E02B0914F02FC
:10121000885B9B40A109B10980934C0290934D02D9
:10122000A0934E02B0934F0268EC70E080E090E033
:101230000E94D50210926A0284EF91E0A0E0B0E033
:1012400080934C0290934D02A0934E02B0934F02B4
:1012500060E070E087E00E941A0462E070E089E0DC
:101260000E941A0468EC70E080E090E00E94D502D1
:101270006091000170910101772786E00E941A04B5
:10128000412C512C32014394CC24CA94DC2C81E0B3
:101290008093F7020E940F030091E7021091E80289
:1012A0002091E9023091EA02AB01BC01401B510BD5
:1012B000620B730B8091F3029091F402A0E0B0E016
:1012C00084179507A607B70708F006C1C0E080910C
:1012D000F102C81760F4E091ED02F091EE02EC0F1C
:1012E000F11D62E080810E947002CF5FF0CF912CEF
:1012F0008091F202981608F05FC0092D10E0E0918D
:10130000EF02F091F002E00FF11F61E080810E9496
:101310007002E091EF02F091F002E00FF11F60E047
:1013200080810E943C02D301C201092C04C0880FB5
:10133000991FAA1FBB1F0A94D2F75C017C01E0949D
:10134000F094812C8091F1028816F8F4C82DD0E039
:10135000E091ED02F091EE02EC0FFD1F80810E9402
:1013600010022496CC0FDD1FC557DD4F892B29F4C1
:10137000888199818A299B2904C0888199818E213D
:101380009F21998388838394DDCFE091EF02F091D0
:10139000F002E00FF11F61E080810E943C02809129
:1013A000EF029091F002FC01E00FF11F60E08081FC
:1013B0000E94700293949CCFE7EAF2E083819481CB
:1013C000892B21F41082D282C1821582369682E066
:1013D000E33EF80799F710E006E08091F102181754
:1013E00008F052C0F12CC12FD0E0CC0FDD1FCD563C
:1013F000DD4F2091F202F21608F044C06881798135
:101400000F2C02C0769567950A94E2F761707727F2
:10141000129F900111242F0D311DE091EB02F091EC
:10142000EC02E20FF31FA081EBE8F2E080E0458DD3
:10143000568D4217530711F461701AC08F5F3696AC
:101440008A30A9F7672BE1F0E7EAF2E080E090E06C
:101450004081411110C0089FF001099FF00D112437
:10146000E557FD4FA48F368F258F10A2178E61E0B0
:101470000E94690405C0019636968A30910541F7AD
:10148000F394B7CF1F5FA9CF80E090E0C0E0FC01EC
:10149000E557FD4F21A12111C1E006968C3391053E
:1014A000B1F70E940F036093E7027093E802809304
:1014B000E9029093EA02CC2379F08091AC02882370
:1014C00059F08091AA029091AB02019729F4E09122
:1014D000A702E11104C06BC01092F70268C08E2F02
:1014E000EE0F990BAA0BBB0BFC01F097EB31F1054A
:1014F00008F055C0E65BFF4F0C94F80A81E090E0DD
:1015000002C082E090E00E94650449C083E090E060
:10151000FACF84E090E0F7CF85E090E0F4CF86E06A
:1015200090E0F1CF87E090E0EECF88E090E0EBCF65
:1015300089E090E0E8CF8AE090E0E5CF8BE090E0B2
:10154000E2CF8CE090E0DFCF8DE090E0DCCF8EE06A
:1015500090E0D9CF8FE090E0D6CF80E190E0D3CF7C
:1015600060E070E082E003C060E070E081E00E9433
:101570001A0415C0809100019091010118161906F6
:1015800074F4019708C080910001909101018E319F
:1015900091052CF4019690930101809300016091D4
:1015A000000170910101772786E00E941A040E94D1
:1015B000B2016DCE8FE391E090936D0280936C0247
:1015C0008CE692E00C946D0597FB072E16F40094C0
:1015D00007D077FD09D00E94FE0A07FC05D03EF433
:1015E000909581959F4F0895709561957F4F0895CF
:1015F000EE0FFF1F0590F491E02D0994AA1BBB1B71
:1016000051E107C0AA1FBB1FA617B70710F0A61B02
:10161000B70B881F991F5A95A9F780959095BC0123
:10162000CD01089581E090E0F8940C94170B10E040
:10163000C3E9D0E004C0FE010E94F80A2196C43933
:08164000D107C9F7F894FFCFB0
:101648001E00090A0B0C0405060708303132333432
:1016580035363738394142434445464748494A7E3A
:10166800FF06000100000000EF000000003F01BC81
:1016780001E10086011201F000040100000000E011
:1016880004BC018405DF0434054C05C704000000D0
:0816980000AC026C02390200F3
:00000001FF
